{
  "contractName": "LuckyLottery",
  "abi": [
    {
      "constant": false,
      "inputs": [],
      "name": "_buyLottery",
      "outputs": [
        {
          "name": "",
          "type": "uint256"
        }
      ],
      "payable": true,
      "stateMutability": "payable",
      "type": "function"
    },
    {
      "constant": true,
      "inputs": [],
      "name": "currentJoined",
      "outputs": [
        {
          "name": "",
          "type": "uint256"
        }
      ],
      "payable": false,
      "stateMutability": "view",
      "type": "function"
    },
    {
      "constant": false,
      "inputs": [],
      "name": "_checkWinner",
      "outputs": [],
      "payable": true,
      "stateMutability": "payable",
      "type": "function"
    },
    {
      "anonymous": false,
      "inputs": [
        {
          "indexed": false,
          "name": "_winner",
          "type": "address"
        },
        {
          "indexed": false,
          "name": "value",
          "type": "uint256"
        }
      ],
      "name": "someoneWin",
      "type": "event"
    }
  ],
  "bytecode": "0x60606040526000600155600060025561001661007c565b604051809103906000f080151561002c57600080fd5b600560006101000a81548173ffffffffffffffffffffffffffffffffffffffff021916908373ffffffffffffffffffffffffffffffffffffffff160217905550341561007757600080fd5b61008c565b60405161016e8061047683390190565b6103db8061009b6000396000f300606060405260043610610057576000357c0100000000000000000000000000000000000000000000000000000000900463ffffffff1680636dad435e1461005c5780637d46568e1461007a578063c20d74d1146100a3575b600080fd5b6100646100ad565b6040518082815260200191505060405180910390f35b341561008557600080fd5b61008d61015e565b6040518082815260200191505060405180910390f35b6100ab610164565b005b6000806000803492506000831115156100c557600080fd5b600354838115156100d257fe5b049150600090505b818110156101455733600760008360015401815260200190815260200160002060006101000a81548173ffffffffffffffffffffffffffffffffffffffff021916908373ffffffffffffffffffffffffffffffffffffffff16021790555080806001019150506100da565b8160016000828254019250508190555081935050505090565b60015481565b60025460015410151561025557610179610257565b600460006101000a81548173ffffffffffffffffffffffffffffffffffffffff021916908373ffffffffffffffffffffffffffffffffffffffff1602179055507ffa326f624f6ed97bde2f7e81cf4076c3343e159f964ce6dcd2613f2b7db7f442600460009054906101000a900473ffffffffffffffffffffffffffffffffffffffff1660035460025402604051808373ffffffffffffffffffffffffffffffffffffffff1673ffffffffffffffffffffffffffffffffffffffff1681526020018281526020019250505060405180910390a160006001819055505b565b600080600560009054906101000a900473ffffffffffffffffffffffffffffffffffffffff1673ffffffffffffffffffffffffffffffffffffffff16635e5201b76002546000604051602001526040518263ffffffff167c010000000000000000000000000000000000000000000000000000000002815260040180828152602001915050602060405180830381600087803b15156102f557600080fd5b6102c65a03f1151561030657600080fd5b5050506040518051905090506007600082815260200190815260200160002060009054906101000a900473ffffffffffffffffffffffffffffffffffffffff16600460006101000a81548173ffffffffffffffffffffffffffffffffffffffff021916908373ffffffffffffffffffffffffffffffffffffffff160217905550600460009054906101000a900473ffffffffffffffffffffffffffffffffffffffff16915050905600a165627a7a72305820fc67e293341e8d2ae4b719e2310582883600356416846512f49ba91f64976e8b0029606060405260008055341561001357600080fd5b61014c806100226000396000f300606060405260043610610041576000357c0100000000000000000000000000000000000000000000000000000000900463ffffffff1680635e5201b714610046575b600080fd5b341561005157600080fd5b610067600480803590602001909190505061007d565b6040518082815260200191505060405180910390f35b60006100888261008f565b9050919050565b600080824233600054604051808481526020018373ffffffffffffffffffffffffffffffffffffffff1673ffffffffffffffffffffffffffffffffffffffff166c01000000000000000000000000028152601401828152602001935050505060405180910390206001900481151561010357fe5b0690506000808154809291906001019190505550809150509190505600a165627a7a723058200bda247243ae0ece122bd71d02f87bec19c7a4ebd77795909db53eea9314ae010029",
  "source": "pragma solidity ^0.4.18;\n\nimport \"./randNum.sol\";\n\n// Based on https://github.com/OpenZeppelin/zeppelin-solidity\n\n/**\n * @title SafeMath\n * @dev Math operations with safety checks that throw on error\n */\nlibrary SafeMath {\n    function mul(uint256 a, uint256 b) internal pure returns (uint256) {\n        if (a == 0) {\n            return 0;\n        }\n        uint256 c = a * b;\n        assert(c / a == b);\n        return c;\n    }\n\n    function div(uint256 a, uint256 b) internal pure returns (uint256) {\n        // assert(b > 0); // Solidity automatically throws when dividing by 0\n        uint256 c = a / b;\n        // assert(a == b * c + a % b); // There is no case in which this doesn't hold\n        return c;\n    }\n\n    function sub(uint256 a, uint256 b) internal pure returns (uint256) {\n        assert(b <= a);\n        return a - b;\n    }\n\n    function add(uint256 a, uint256 b) internal pure returns (uint256) {\n        uint256 c = a + b;\n        assert(c >= a);\n        return c;\n    }\n    // bug\n    // function clear(uint a) internal pure returns (uint) {\n    //   a = 0;\n    //   return a;\n    // }\n}\n\ncontract LuckyLottery {\n  using SafeMath for uint; // to use the library above, to extend the function of uint Class\n\n  address owner;\n  uint public currentJoined = 0;\n  uint maxJoined = 0;\n  uint minValue;\n  address winner;\n  RandNum randNum = new RandNum();  // Create new instance\n\n  mapping (address => uint) balances;\n  mapping (uint => address) joinedQueue;    // joined Queue\n  mapping (address => mapping (address => uint256)) allowed;\n\n  event someoneWin(address _winner, uint value);\n\n\n  modifier onlyOwner() {\n    require(msg.sender == owner);\n      _;\n  }\n\n  function _buyLottery() payable public returns (uint) {\n    uint wager = msg.value;\n    require(wager > 0);\n    uint buyNum = wager / minValue;\n    \n    for (uint index = 0; index < buyNum; index++) {\n      joinedQueue[currentJoined + index] = msg.sender;   \n    }\n\n    currentJoined += buyNum;\n    return buyNum;\n  }\n  \n  \n  function _checkWinner() payable public {\n    if (currentJoined >= maxJoined) {\n    \n      winner = _luckyDraw();  // get the winner\n    //   _sendPrize(winner, maxJoined * minValue); // send the prize to winner\n      someoneWin(winner, maxJoined * minValue);\n\n      currentJoined = 0;  // reset the counter\n    }\n  }\n\n  function _sendPrize(address _winner, uint _prizeValue) internal {\n    require(maxJoined * minValue <= this.balance);\n\n    uint etherBalance = _prizeValue;\n    _winner.transfer(etherBalance);\n  }\n\n\n  function _luckyDraw() internal returns(address) {\n   uint luckyNum = randNum.getRand(maxJoined);\n   winner = joinedQueue[luckyNum];\n   return winner;\n  }\n}",
  "sourcePath": "/Users/r4y/Misc/BC/lottery/contracts/lotteryBasic.sol",
  "compiler": {
    "name": "solc",
    "version": "0.4.18+commit.9cf6e910.Emscripten.clang"
  },
  "schemaVersion": "1.0.1",
  "updatedAt": "2018-02-19T10:52:53.268Z"
}