{
  "contractName": "MyLottery",
  "abi": [
    {
      "constant": false,
      "inputs": [],
      "name": "withdraw",
      "outputs": [],
      "payable": false,
      "stateMutability": "nonpayable",
      "type": "function"
    },
    {
      "constant": false,
      "inputs": [],
      "name": "_buyLottery",
      "outputs": [
        {
          "name": "",
          "type": "uint256"
        }
      ],
      "payable": true,
      "stateMutability": "payable",
      "type": "function"
    },
    {
      "constant": true,
      "inputs": [],
      "name": "currentJoined",
      "outputs": [
        {
          "name": "",
          "type": "uint256"
        }
      ],
      "payable": false,
      "stateMutability": "view",
      "type": "function"
    },
    {
      "constant": false,
      "inputs": [],
      "name": "_checkWinner",
      "outputs": [],
      "payable": true,
      "stateMutability": "payable",
      "type": "function"
    },
    {
      "constant": false,
      "inputs": [
        {
          "name": "_banedUser",
          "type": "address"
        }
      ],
      "name": "disableUser",
      "outputs": [],
      "payable": false,
      "stateMutability": "nonpayable",
      "type": "function"
    },
    {
      "constant": true,
      "inputs": [
        {
          "name": "",
          "type": "address"
        }
      ],
      "name": "blacklist",
      "outputs": [
        {
          "name": "",
          "type": "bool"
        }
      ],
      "payable": false,
      "stateMutability": "view",
      "type": "function"
    },
    {
      "inputs": [
        {
          "name": "_minValue",
          "type": "uint256"
        },
        {
          "name": "_maxJoined",
          "type": "uint256"
        }
      ],
      "payable": false,
      "stateMutability": "nonpayable",
      "type": "constructor"
    },
    {
      "payable": true,
      "stateMutability": "payable",
      "type": "fallback"
    },
    {
      "anonymous": false,
      "inputs": [
        {
          "indexed": false,
          "name": "_winner",
          "type": "address"
        },
        {
          "indexed": false,
          "name": "value",
          "type": "uint256"
        }
      ],
      "name": "someoneWin",
      "type": "event"
    }
  ],
  "bytecode": "0x6060604052600060015560006002556100166100f7565b604051809103906000f080151561002c57600080fd5b600560006101000a81548173ffffffffffffffffffffffffffffffffffffffff021916908373ffffffffffffffffffffffffffffffffffffffff1602179055506000600a55341561007c57600080fd5b6040516040806108e38339810160405280805190602001909190805190602001909190505033600960016101000a81548173ffffffffffffffffffffffffffffffffffffffff021916908373ffffffffffffffffffffffffffffffffffffffff16021790555080600281905550816003819055505050610107565b60405161016e8061077583390190565b61065f806101166000396000f300606060405260043610610078576000357c0100000000000000000000000000000000000000000000000000000000900463ffffffff1680633ccfd60b146100835780636dad435e146100985780637d46568e146100b6578063c20d74d1146100df578063ee6649a1146100e9578063f9f92be414610122575b610080610173565b50005b341561008e57600080fd5b610096610224565b005b6100a0610173565b6040518082815260200191505060405180910390f35b34156100c157600080fd5b6100c9610300565b6040518082815260200191505060405180910390f35b6100e7610306565b005b34156100f457600080fd5b610120600480803573ffffffffffffffffffffffffffffffffffffffff169060200190919050506103f9565b005b341561012d57600080fd5b610159600480803573ffffffffffffffffffffffffffffffffffffffff16906020019091905050610460565b604051808215151515815260200191505060405180910390f35b60008060008034925060008311151561018b57600080fd5b6003548381151561019857fe5b049150600090505b8181101561020b5733600760008360015401815260200190815260200160002060006101000a81548173ffffffffffffffffffffffffffffffffffffffff021916908373ffffffffffffffffffffffffffffffffffffffff16021790555080806001019150506101a0565b8160016000828254019250508190555081935050505090565b60008060009054906101000a900473ffffffffffffffffffffffffffffffffffffffff1673ffffffffffffffffffffffffffffffffffffffff163373ffffffffffffffffffffffffffffffffffffffff1614151561028157600080fd5b3073ffffffffffffffffffffffffffffffffffffffff16319050600960019054906101000a900473ffffffffffffffffffffffffffffffffffffffff1673ffffffffffffffffffffffffffffffffffffffff166108fc829081150290604051600060405180830381858888f1935050505015156102fd57600080fd5b50565b60015481565b6002546001541015156103f75761031b610480565b600460006101000a81548173ffffffffffffffffffffffffffffffffffffffff021916908373ffffffffffffffffffffffffffffffffffffffff1602179055507ffa326f624f6ed97bde2f7e81cf4076c3343e159f964ce6dcd2613f2b7db7f442600460009054906101000a900473ffffffffffffffffffffffffffffffffffffffff1660035460025402604051808373ffffffffffffffffffffffffffffffffffffffff1673ffffffffffffffffffffffffffffffffffffffff1681526020018281526020019250505060405180910390a160006001819055505b565b6000809054906101000a900473ffffffffffffffffffffffffffffffffffffffff1673ffffffffffffffffffffffffffffffffffffffff163373ffffffffffffffffffffffffffffffffffffffff1614151561045457600080fd5b61045d816105d8565b50565b600b6020528060005260406000206000915054906101000a900460ff1681565b600080600560009054906101000a900473ffffffffffffffffffffffffffffffffffffffff1673ffffffffffffffffffffffffffffffffffffffff16635e5201b76002546000604051602001526040518263ffffffff167c010000000000000000000000000000000000000000000000000000000002815260040180828152602001915050602060405180830381600087803b151561051e57600080fd5b6102c65a03f1151561052f57600080fd5b5050506040518051905090506007600082815260200190815260200160002060009054906101000a900473ffffffffffffffffffffffffffffffffffffffff16600460006101000a81548173ffffffffffffffffffffffffffffffffffffffff021916908373ffffffffffffffffffffffffffffffffffffffff160217905550600460009054906101000a900473ffffffffffffffffffffffffffffffffffffffff1691505090565b6001600b60008373ffffffffffffffffffffffffffffffffffffffff1673ffffffffffffffffffffffffffffffffffffffff16815260200190815260200160002060006101000a81548160ff021916908315150217905550505600a165627a7a7230582054671c901643d243ad892a2cf8146529e6b41a69430faf10b13b038cba7149c20029606060405260008055341561001357600080fd5b61014c806100226000396000f300606060405260043610610041576000357c0100000000000000000000000000000000000000000000000000000000900463ffffffff1680635e5201b714610046575b600080fd5b341561005157600080fd5b610067600480803590602001909190505061007d565b6040518082815260200191505060405180910390f35b60006100888261008f565b9050919050565b600080824233600054604051808481526020018373ffffffffffffffffffffffffffffffffffffffff1673ffffffffffffffffffffffffffffffffffffffff166c01000000000000000000000000028152601401828152602001935050505060405180910390206001900481151561010357fe5b0690506000808154809291906001019190505550809150509190505600a165627a7a723058200bda247243ae0ece122bd71d02f87bec19c7a4ebd77795909db53eea9314ae010029",
  "source": "pragma solidity ^0.4.18;\n\nimport \"./lotteryBasic.sol\";\n\ncontract MyLottery is LuckyLottery {\n\n  bool isEnable;\n  address owner;\n  uint currentJoined = 0;\n\n  mapping (address => bool) public blacklist; // 黑名单\n  \n  modifier canBuy() {\n    require(isEnable);\n    _;\n  }\n\n  modifier onlyWhitelist() {\n    require(blacklist[msg.sender] == false);\n      _;\n  }\n\n  function MyLottery( uint _minValue, uint _maxJoined) public {\n    owner = msg.sender;\n    LuckyLottery.maxJoined = _maxJoined;\n    LuckyLottery.minValue = _minValue;\n  }\n  \n    // fallback function to buy a ticket\n  function () external payable {  \n    LuckyLottery._buyLottery();\n //   _checkWinner();\n  }\n  \n  function withdraw() onlyOwner public {  // 跑路函数\n    uint256 etherBalance = this.balance;\n    owner.transfer(etherBalance);\n  }\n\n  function _addBlacklist(address _banedUser) internal {\n    blacklist[_banedUser] = true;\n  }\n\n  function disableUser(address _banedUser) public onlyOwner {\n    _addBlacklist(_banedUser);\n  }\n\n}",
  "sourcePath": "/Users/r4y/Misc/BC/lottery/contracts/lottery.sol",
  "compiler": {
    "name": "solc",
    "version": "0.4.18+commit.9cf6e910.Emscripten.clang"
  },
  "schemaVersion": "1.0.1",
  "updatedAt": "2018-02-19T10:52:53.266Z"
}