{
  "contractName": "RandNum",
  "abi": [
    {
      "constant": false,
      "inputs": [
        {
          "name": "_maxNum",
          "type": "uint256"
        }
      ],
      "name": "getRand",
      "outputs": [
        {
          "name": "",
          "type": "uint256"
        }
      ],
      "payable": false,
      "stateMutability": "nonpayable",
      "type": "function"
    }
  ],
  "bytecode": "0x606060405260008055341561001357600080fd5b6101d1806100226000396000f300606060405260043610610041576000357c0100000000000000000000000000000000000000000000000000000000900463ffffffff1680635e5201b714610046575b600080fd5b341561005157600080fd5b610067600480803590602001909190505061007d565b6040518082815260200191505060405180910390f35b60006100888261008f565b9050919050565b6000806000834233600054604051808481526020018373ffffffffffffffffffffffffffffffffffffffff1673ffffffffffffffffffffffffffffffffffffffff166c01000000000000000000000000028152601401828152602001935050505060405180910390206001900481151561010557fe5b0691506000808154809291906001019190505550834233600054604051808481526020018373ffffffffffffffffffffffffffffffffffffffff1673ffffffffffffffffffffffffffffffffffffffff166c01000000000000000000000000028152601401828152602001935050505060405180910390206001900481151561018a57fe5b069050600281830181151561019b57fe5b04925050509190505600a165627a7a72305820946d08e71ba312a632f943d661c89eb66ec36c2553fddc4644b6e3cdf57edbcd0029",
  "source": "pragma solidity ^0.4.18;\n\n\ncontract RandNum {\n  uint randNonce = 0;\n\n  function _genRand(uint _randMax) internal returns(uint) {\n    \n    uint random = uint(keccak256(now, msg.sender, randNonce)) % _randMax;\n    randNonce++;\n    uint random2 = uint(keccak256(now, msg.sender, randNonce)) % _randMax;\n    \n\n\n    return (random + random2) / 2;\n  }\n\n  function _resetNonce() internal returns (uint) {\n    \n    if (128 == randNonce){\n      randNonce = 0;\n    }\n  }\n\n  function getRand(uint _maxNum) external returns (uint) {\n    \n    return _genRand(_maxNum);\n  }\n}\n\n",
  "sourcePath": "/Users/r4y/Misc/BC/lottery/contracts/randNum.sol",
  "compiler": {
    "name": "solc",
    "version": "0.4.18+commit.9cf6e910.Emscripten.clang"
  },
  "schemaVersion": "1.0.1",
  "updatedAt": "2018-02-18T15:03:35.817Z"
}