{
  "contractName": "RandNum",
  "abi": [
    {
      "constant": false,
      "inputs": [
        {
          "name": "_maxNum",
          "type": "uint256"
        }
      ],
      "name": "getRand",
      "outputs": [
        {
          "name": "",
          "type": "uint256"
        }
      ],
      "payable": false,
      "stateMutability": "nonpayable",
      "type": "function"
    }
  ],
  "bytecode": "0x606060405260008055341561001357600080fd5b61014c806100226000396000f300606060405260043610610041576000357c0100000000000000000000000000000000000000000000000000000000900463ffffffff1680635e5201b714610046575b600080fd5b341561005157600080fd5b610067600480803590602001909190505061007d565b6040518082815260200191505060405180910390f35b60006100888261008f565b9050919050565b600080824233600054604051808481526020018373ffffffffffffffffffffffffffffffffffffffff1673ffffffffffffffffffffffffffffffffffffffff166c01000000000000000000000000028152601401828152602001935050505060405180910390206001900481151561010357fe5b0690506000808154809291906001019190505550809150509190505600a165627a7a723058200bda247243ae0ece122bd71d02f87bec19c7a4ebd77795909db53eea9314ae010029",
  "source": "pragma solidity ^0.4.18;\n\n\ncontract RandNum {\n  uint randNonce = 0;\n  \n  // return the random vlaue 0 ~ _randMax - 1\n  function _genRand(uint _randMax) internal returns(uint) {\n    \n    uint random = uint(keccak256(now, msg.sender, randNonce)) % _randMax;\n    randNonce++;\n\n    return random;\n  }\n\n  function _resetNonce() internal returns (uint) {\n    \n    if (128 == randNonce) {\n      randNonce = 0;\n    }\n  }\n\n  function getRand(uint _maxNum) external returns (uint) {\n    \n    return _genRand(_maxNum);\n  }\n}\n\n",
  "sourcePath": "/Users/r4y/Misc/BC/lottery/contracts/randNum.sol",
  "compiler": {
    "name": "solc",
    "version": "0.4.18+commit.9cf6e910.Emscripten.clang"
  },
  "schemaVersion": "1.0.1",
  "updatedAt": "2018-02-19T10:52:53.271Z"
}